:06000000020F7302006B09
:03000B0002006B85
:0300130002006B7D
:03001B0002006B75
:0300230002006B6D
:03002B0002006B65
:0300330002006B5D
:03003B0002006B55
:0300430002006B4D
:03004B0002006B45
:0300530002006B3D
:03005B0002006B35
:0300630002006B2D
:01006B003262
:1000800002006B0002006B0002006B0002006B00BC
:1000900002006B0002006B0002006B0002006B00AC
:1000A00002006B0002006B0002006B0002006B009C
:0800B00002006B0002006B006E
:1001000002006B0002006B0002006B0002006B003B
:1001100002006B0002006B0002006B0002006B002B
:1001200002006B0002006B0002006B0002006B001B
:1001300002006B0002006B0002006B0002006B000B
:1001400002006B0002006B0002006B0002006B00FB
:1001500002006B0002006B0002006B0002006B00EB
:1001600002006B0002006B0002006B0002006B00DB
:1001700002006B0002006B0002006B0002006B00CB
:030F7B00020F81E1
:030F9400020F7ECB
:030F7E000205A6C3
:10018000C200E4F508F509F50AD201750B00750CFB
:100190000012076112075E75CB6375CAC0758E00C9
:1001A00075C804D2AFD2B0D2B190E60B7403F000A0
:1001B00090E6047480F00090E6047402F00090E68B
:1001C000047404F00090E6047406F00090E60474F1
:1001D00008F00090E604E4F00090E61074A0F0004F
:1001E00090E61174A0F00090E618E4F00090E6129A
:1001F00074A2F00090E619E4F00090E61374A0F009
:100200000090E60BE4F00090E61474A2F00090E693
:100210001AE4F00090E61A7411F00090E61574E00C
:10022000F00090E61BE4F00090E61B7409F00090EB
:10023000E626E4F00090E6277440F00090E6917422
:1002400080F00090E6957480F00090E6917480F064
:100250000090E6957480F00043A08090E6FBE053A8
:10026000E0FDF090E601E053E0F7F022AF82850C6C
:10027000827583E0EFF0AF0C0F8F0C0509E4B50930
:1002800002050A222000012212075D90E6A2E0305A
:10029000E103020316E509450A60637EC07FE78F2C
:1002A0009D759EC090E67C7431F07460F0C3743E1E
:1002B0009509E4950A50107F3EE50924C2F509E549
:1002C0000A34FFF50A8007AF09E4F509F50A8F063D
:1002D0007C007DE08D9A850B9B8F051FED60109053
:1002E000E67BE090E67CF07C007DE08D9A80EA85FC
:1002F0009B0B0090E68F74022EF0D2CF801830CF87
:100300001590E7C07431F090E7C17460F00090E69A
:100310008F7402F0C2CFE5AA30E00122C3E5099450
:10032000C1E50A940040012290E690E0FE7F009033
:10033000E691E0FD7C00EF4DF50DEE4CF50E7C00F6
:100340007DF08D9A759B007C007D00C3EC950DEDD2
:10035000950E4003020426E50870030203E2E50D52
:10036000C39CFAE50E9DFBA8087900C3E89AE99BB7
:100370005004880289038A01E508C399F508EA2C2C
:10038000FCEB3DFD30012C8A008B018806890718A3
:10039000B8FF0119EE4F60B390E67BE0F582C0052F
:1003A000C004C001C0001207C6D000D001D004D0E4
:1003B0000580D88A068B078E028F031EBEFF011FA1
:1003C000EA4B608790E67BE0F582C007C006C00577
:1003D000C00412080312026CD004D005D006D00766
:1003E00080D590E67BE0FF23235401FEB401009208
:1003F00001EF30E707743F5FF508802230010F8F6F
:1004000082C005C00412077FD004D00580108F82FF
:10041000C005C0041207B412026CD004D0050CBC95
:1004200000010D02034B0090E6917480F02290E6EB
:10043000B8E020E70C90E6B9E07002D200758201C6
:100440002290E6B9E0FFBF9002801ABF910280615E
:10045000BF92030204E8BF9303020502BF940302A4
:10046000053102056A90E6BCE025E0547FFF2400D8
:10047000F582E43418F583E090E740F07E000FBF8A
:1004800000010EEF2400F582EE3418F583E090E7CA
:1004900041F090E6BEE0FFBF0200500990E6BEE0EA
:1004A000FE7F0080047E027F0090E68BEEF0020566
:1004B0009790E6BCE0701390E6FBE053E0FDF0900F
:1004C000E7407402F0120903801190E6FBE043E07C
:1004D00002F090E7407401F012090390E68AE4F01C
:1004E00090E68B04F002059790E6BCE0700543A00F
:1004F00080800353A07F90E68AE4F090E68BF002C0
:10050000059790E6BCE0700F90E601E053E0F7F04D
:1005100090E740E4F0800E90E601E043E008F090C0
:10052000E7407401F090E68AE4F090E68B04F080F6
:10053000667E007F00EE2497FBEF340FFC7D808BFE
:10054000828C838DF0120F57FD6013EE2440F582EC
:10055000EF34E7F583EDF00EBE00DA0F80D790E6BA
:100560008AE4F090E68BEEF0802D90E7407436F050
:1005700090E7417483F090E68AE4F090E6BEE0FFF5
:10058000BF0200500990E6BEE0FE7F0080047E02BC
:100590007F0090E68BEEF075820122300203120A92
:1005A000A612028480F5C2AF120180120603120E59
:0C05B00082120A0DD2AF12090302059B53
:060F9700342E322E300062
:10E1000012011001FF000040FB0901600004010240
:10E1100003010A061001FFFFFF400100090237005A
:10E1200002010080FA0904000002FFFFFF02070558
:10E1300081024000000705020240000009040100BE
:10E1400002FFFFFF02070506020002000705880222
:03E15000000200CA
:10E154001201100100000040FB09016000040102EB
:10E1640003010A061001FFFFFF4001000902370006
:10E1740002010080FA0904000002FFFFFF02070504
:10E18400810240000007050202400000090401006A
:10E1940002FFFFFF02070506024000000705880290
:10E1A40040000004B0E1B6E1C0E1D8E1060300009C
:10E1B40009040A034500500046004C0018035500AA
:10E1C400530042002D0042006C0061007300740093
:10E1D400650072001203300030003000300030005F
:06E1E400300030003000A5
:1005BC00AF8274FE550FFEB50F02802A8F048C0596
:1005CC00E4FC6210ED6211EE2400F582E43418F5BF
:1005DC0083E0FE7D006210ED6211E51033C511332E
:1005EC00C51192E0F510AE0F050FEE2400F582E474
:1005FC003418F583EFF022750F007510AA7511AA47
:10060C007582001205BC7582001205BC7F00EF24B8
:10061C0008F582E434E1F583E0F582C0071205BCED
:10062C00D0070FBF060040E67F00EF2423F582E4DD
:10063C0034E1F583E0F582C0071205BCD0070FBF8B
:10064C00020040E675821C1205BC7582001205BCC6
:10065C007F00EF2402F582E434E1F583E0F582C0FB
:10066C00071205BCD0070FBF020040E6AF0F74861F
:10067C002FFFF582C0071205BC90E1B6E0F582129F
:10068C0005BCD00790E1B6E02FFEF582C00612053E
:10069C00BC90E1C0E0F5821205BCD00690E1C0E050
:1006AC002EF5821205BC90E1D8E0F5821205BC7FD4
:1006BC000090E1B6E0FEC3EF9E5017EF24B6F58232
:1006CC00E434E1F583E0F582C0071205BCD0070FD6
:1006DC0080DF7F0090E1C0E0FEC3EF9E5017EF2457
:1006EC00C0F582E434E1F583E0F582C0071205BC65
:1006FC00D0070F80DF7F0090E1D8E0FEC3EF9E5063
:10070C0017EF24D8F582E434E1F583E0F582C007D5
:10071C001205BCD0070F80DF7F00EF240EF582E4BA
:10072C0034E1F583E0F582C0071205BCD0070FBF9A
:10073C00040040E67482250F40087582001205BC47
:10074C0080F2AF1090187EEFF0AF1190187FEFF0A1
:01075C00227A
:020F7300D200AA
:10075D002222222290E6007412F090E60174E0F05D
:10076D00E043E00BF075B28075B67F75B14075B2A0
:10077D00A922E582FF540124FF9283EF0354012443
:10078D00FF9287EF0303540124FF9281EFA2E3E46C
:10079D003324FF9282EFC4540124FF9285EFA2E52A
:1007AD00E43324FF92872212077FA284E43325E0ED
:1007BD00FFA286E4334FF58222E582139285D28320
:1007CD0013C2839285D28313C2839285D28313C2BF
:1007DD00839285D28313C2839285D28313C283926F
:1007ED0085D28313C2839285D28313C2839285D21D
:1007FD008300C2832222AF823082058F82020812CB
:10080D008F82020860E582A286139285D283C2830D
:10081D00A286139285D283C283A286139285D28338
:10082D00C283A286139285D283C283A28613928538
:10083D00D283C283A286139285D283C283A28613EA
:10084D009285D283C283A286139285D283C283F509
:10085D00822222E582A284139285D283C283A2844E
:10086D00139285D283C283A284139285D283C283CD
:10087D00A284139285D283C283A284139285D283DC
:10088D00C283A284139285D283C283A284139285DC
:10089D00D283C283A284139285D283C283F582222E
:1008AD00227880E84400600C7901901800E4F0A3F0
:1008BD00D8FCD9FAD083D082F6D8FDC082C083751A
:1008CD0082002290E6A0E043E001F022AF828F0586
:1008DD00530580E4C423CDC423541F6DCD541FCDC7
:1008ED006DCD30E40244E053070F90E683EF4DF0F9
:1008FD00E043E020F02290E680E043E00AF0900033
:10090D00FA120F3F90E65D74FFF090E65FF05391A1
:0A091D00EF90E680E053E0F7F022CF
:060F8E00E478FFF6D8FD37
:060F750075120075130067
:1009270090E680E030E7267514007515E17516121C
:100937007517E175181C7519E1751A70751BE1902B
:10094700E6267402F00090E627E4F00022751454BE
:100957007515E17516667517E17518707519E175E6
:100967001A1C751BE190E626E4F00090E627744018
:10097700F000225391EF75A100D20232C021C0E0EE
:10098700C0F0C082C083C007C006C005C004C00352
:10099700C002C001C000C0D075D0005391EF75A14F
:1009A70000120927D0D0D000D001D002D003D00444
:1009B700D005D006D007D083D082D0F0D0E0D021A8
:1009C70032C021C0E0C0F0C082C083C007C006C0EB
:1009D70005C004C003C002C001C000C0D075D0006C
:1009E7005391EF75A100120927D0D0D000D001D0C4
:1009F70002D003D004D005D006D007D083D082D050
:100A0700F0D0E0D02132120927751C7A751D0975BF
:100A17008200120DDB751C83751D09758210120D7E
:100A2700DB751CC8751D09758214120DDB90E65C19
:100A37007431F022E582547FFF24F7500475820059
:100A470022BF0104758201225307017E00E4BF0023
:100A570004BE000104F58222AF82BF010C90E6A11B
:100A6700E0FE7D008E828D8322BF810C90E6A2E09E
:100A7700FE7D008E828D832253077FEF700C90E6F8
:100A8700A0E0FE7D008E828D832290E6A3E0FE7DAE
:100A970000EFC3137C002EFEEC3D8E82F58322C24D
:100AA7000290E6B8E0FF5307608F06BE0002802879
:100AB700BF2002800DBF4002800EBF60028003028C
:100AC7000D651208D0020D6512042EE5826003023F
:100AD7000D651208D0020D6590E6B8E0FF53078058
:100AE700BF80028003020C6790E6B9E0FFBF0003F6
:100AF700020BDEBF06028033BF08028008BF0A026E
:100B07008016020C6190E740E512F090E68AE4F067
:100B170090E68B04F0020D6590E740E513F090E650
:100B27008AE4F090E68B04F0020D6590E6BBE0FFE7
:100B3700BF01028017BF02028036BF03028055BF84
:100B47000602801ABF07028039020BD8AE14AF1510
:100B570090E6B3EFF090E6B4E514F0020D65AE163B
:100B6700AF1790E6B3EFF090E6B4E516F0020D6527
:100B7700AE18AF1990E6B3EFF090E6B4E518F002BF
:100B87000D65AE1AAF1B90E6B3EFF090E6B4E51A29
:100B9700F0020D6590E6BAE0FF90E1A7E0FEC3EF33
:100BA7009E40061208D0020D6590E6BAE075F00285
:100BB700A424A8F58274E135F0F583E0FEA3E0FFF5
:100BC7008E048F0590E6B3EDF090E6B4EEF0020DDB
:100BD700651208D0020D6590E6B8E0FF53071F8F36
:100BE70006BE0002800ABE0102801BBF0266802C7F
:100BF70090E740E4F090E741F090E68AF090E68BCA
:100C07007402F0020D6590E740E4F090E741F09040
:100C1700E68AF090E68B7402F0020D6590E6BCE080
:100C2700F582120A3BE582602590E6BCE0F5821268
:100C37000A5FE0FF53070190E740EFF090E741E4D8
:100C4700F090E68AF090E68B7402F0020D651208C8
:100C5700D0020D651208D0020D651208D0020D658D
:100C670090E6B9E0FF24F45003020D62EF240A83F3
:100C7700F582EF241083F583E47362AE2B0C626276
:100C87006262629962A50D0C0D0D0D0D0D0D0D0C17
:100C97000D0C53B1BF90E6BAE0F512020D6590E670
:100CA700BAE0F513020D6590E6B8E0FF53071F8F12
:100CB70006BE00028005BF0247800A90E6BAE0122E
:100CC70008D0020D6590E6BAE0703090E6BCE0F51A
:100CD70082120A3BE582602390E6BCE0F582120AA5
:100CE7005FAE82AF83E0FD5305FE8E828F83EDF00A
:100CF70090E6BCE0F5821208D980631208D0805EC6
:100D07001208D0805990E6B8E0FF53071FBF004E86
:100D170090E6BAE0FFBF01028005BF0202803F12E2
:100D270008D0803A90E6BAE0702C90E6BCE0F582F5
:100D3700120A3BE582601A90E6BCE0F582120A5F70
:100D4700AE82AF83E0FD4305018E828F83EDF08095
:100D57000D1208D080081208D080031208D090E640
:100D6700A0E043E080F022AF82BF03004005EF24FC
:100D77009C5001228F057E00740F5DFB7C00BB0336
:100D870005BC0002800C740F5DFB7C00BB0B44BCF0
:100D97000041A2AFE433FCC2AFEF2400F582E43494
:100DA70000F5837402F0142DFBE43EFFEB2400F5FD
:100DB70082EF3400F583E51DF074022DFDE43EFE5D
:100DC700ED2400F582EE3400F583E51CFFF0EC24FA
:100DD700FF92AF22E582FF2483500122EF54036084
:100DE7000122A2AFE433FEC2AFEF2400F582E43460
:100DF70001F5837402F07D00142FFBE43DFCEB2426
:100E070000F582EC3401F583E51DF074022FFFE451
:100E17003DFDEF2400F582ED3401F583E51CF0EE8E
:100E270024FF92AF22AF82BF80004005EF244B50D2
:100E37000122EF5403600122A2AFE433FEC2AFEFF9
:100E47002480F582E43400F5837402F07D00142FCA
:100E5700FBE43DFCEB2480F582EC3400F583E51DD3
:100E6700F074022FFFE43DFDEF2480F582ED34009E
:100E7700F583E51CF0EE24FF92AF22C2E8C2EA75C3
:100E87001C00751D01758243120D6E751C80751D42
:100E970000758253120D6E0090E650E4F00090E664
:100EA70052E4F00090E654E4F00090E656E4F000D7
:100EB70090E65174FFF00090E65374FFF00090E65F
:100EC7005574FFF00090E65774FFF00090E658E481
:100ED700F090E65914F090E65AE4F090E65B14F0CF
:100EE70090E65CE4F090E65D14F090E65EE4F09046
:100EF700E65F14F00090E660E4F00090E66174FFAE
:100F0700F090E662E4F090E66314F090E665E4F0B2
:100F170090E668740BF05391EF5391BFD2E8D2EA91
:100F27002222AF82120F28EF14FF70F82290FB5095
:100F3700A3E582458370F922AE82AF83120F34EEA8
:100F470024FFFCEF34FFFD8C068D07EC4D70ED227E
:0D0F81007581211208AEE5826003020F7E2B
:100F570020F71430F6148883A88220F507E6A883C3
:0C0F670075830022E280F7E49322E02270
:00000001FF
